S01000004A6F79737469636B2E73726563C4
S11300000C942A000C943F000C943F000C943F0085
S11300100C943F000C943F000C943F000C943F0060
S11300200C943F000C943F000C943F000C943F0050
S11300300C943F000C943F000C943F000C943F0040
S11300400C943F000C943F000C943F000C943F0030
S11300500C943F0011241FBECFE5D4E0DEBFCDBF1A
S113006010E0A0E6B0E0EAE9F4E002C005900D92E9
S1130070A636B107D9F70E94EF010C944B020C94F9
S11300800000979A00C097980895CF93DF93D82FD4
S1130090662311F0959A01C09598969881B38F6064
S11300A081BBC2B3C07F8D2F82958F708C2B82BB96
S11300B00E944100DF70DC2BD2BB0E944100CF6064
S11300C0C2BBDF91CF910895882311F0959A01C0A6
S11300D09598969A81B3807F81BB979A00C090B31C
S11300E0979800C0979A00C020B32F70892F8295EB
S11300F0807F9798822B089580E00E946400882373
S1130100DCF383E090E00197F1F780E00E94640063
S11301100895CF93C82F0E947C0060E08C2F0E942A
S11301204500CF91089581E00E9489000895CF93FE
S1130130C82F0E947C00CA3049F4803410F080E05B
S113014001C080E480580E94890004C061E08C2FC3
S11301500E944500CF910895CF93DF93EC0121963F
S1130160FC018081882329F00E94970089918111E4
S1130170FBCFDF91CF9108951F93CF93DF93182F77
S113018081B38F6081BB8D9A8E9A8F9A80E393E7B7
S11301900197F1F7919A909A0E94410080EF93E2BF
S11301A00197F1F70E944100C5E7D0E0CE01019725
S11301B0F1F70E944100CE010197F1F790980E9457
S11301C041002197F1F788E20E94890088E00E94AB
S11301D089000E94930086E00E948900812F0E947A
S11301E08900DF91CF911F9108950F931F93CF93AF
S11301F0DF93CDB7DEB760970FB6F894DEBF0FBEBE
S1130200CDBF8C010E9493004AE0BE016F5F7F4F17
S1130210C8010E94160280E80E94890080E690E0EE
S11302200E94AC0086E80E948900CE0101960E94DB
S1130230AC0060960FB6F894DEBF0FBECDBFDF9161
S1130240CF911F910F91089587E088BB88B3809563
S113025088BB8FEF93E20197F1F700C0000083E0C1
S113026088BB88B3809588BB8FEF93E20197F1F741
S113027000C000008BE088BB88B3809588BB8FEFFB
S113028093E20197F1F700C0000089E088BB88B3CE
S1130290809588BB8FEF93E20197F1F700C00000CF
S11302A08DE088BB88B3809588BB8FEF93E201977C
S11302B0F1F700C000008CE088BB88B3809588BB50
S11302C08FEF93E20197F1F700C000008EE088BB46
S11302D088B3809588BB8FEF93E20197F1F700C054
S11302E0000086E088BB88B3809588BB8FEF93E2DB
S11302F00197F1F700C00000089586E088BB88B339
S1130300809588BB8FEF93E20197F1F700C000005E
S11303108EE088BB88B3809588BB8FEF93E201970A
S1130320F1F700C000008CE088BB88B3809588BBDF
S11303308FEF93E20197F1F700C000008DE088BBD6
S113034088B3809588BB8FEF93E20197F1F700C0E3
S1130350000089E088BB88B3809588BB8FEF93E267
S11303600197F1F700C000008BE088BB88B380954B
S113037088BB8FEF93E20197F1F700C0000083E0A0
S113038088BB88B3809588BB8FEF93E20197F1F720
S113039000C0000087E088BB88B3809588BB8FEFDE
S11303A093E20197F1F700C0000008951ABA87E8B4
S11303B086B980E487B9089597B18F70982B97B95F
S11303C0369A349BFECF88E18A95F1F700C024B1B8
S11303D085B190E0982F8827820F911D089580E1C0
S11303E081BB81E28FBD8AE08EBD8EE090E099BD35
S11303F088BD8CE00E94BC000E94D6018FE087BBC0
S113040080E00E94DC01EC010E94F500CC3882E01F
S1130410D80714F40E942401C330D34014F00E947E
S11304207D0183E397E00197F1F7EACFBB274A30D8
S113043031F4992322F4BDE2909581959F4F0C9459
S11304402202BB27FB015527AA27880F991FAA1F41
S1130450A41710F0A41B83955051B9F7A05DAA33DB
S113046008F0A95DA193009779F7B111B1931192A6
S1130470CB010C943B02DC01FC01672F71917723C3
S1130480E1F7329704C07C916D9370836291AE174B
S10D0490BF07C8F30895F894FFCFE6
S109049A4144433A200036
S9030000FC
