S01000004A6F79737469636B2E73726563C4
S11300000C94A7000C94C4000C94C4000C94C40079
S11300100C94C4000C94C4000C94C4000C94C4004C
S11300200C9498010C94C4000C94C4000C94C40067
S11300300C94C4000C94C4000C94C4000C94C4002C
S11300400C94C4000C94C4000C94C4000C94C4001C
S11300500C94C40000407A10F35A00A0724E1809A0
S11300600010A5D4E80000E87648170000E40B541B
S1130070020000CA9A3B000000E1F50500008096EA
S11300809800000040420F000000A086010000001C
S1130090102700000000E8030000000064000000D6
S11300A000000A00000000000100000000002C769F
S11300B0D888DC674F0823DFC1DFAE59E1B1B796BA
S11300C0E5E3E453C63AE651997696E8E6C2842617
S11300D0EB898C9B62ED407C6FFCEFBC9C9F40F2F3
S11300E0BAA56FA5F490055A2AF75C936B6CF9676F
S11300F06DC11BFCE0E40D47FEF520E6B500D0ED34
S1130100902E0300943577050080841E080000209B
S11301104E0A000000C80C333333330F986E128339
S11301201141EF8D2114893BE65516CFFEE6DB180D
S1130130D1844B381BF77C1D901DA4BBE4242032D2
S113014084725E228100C9F124ECA1E53D271124CB
S11301501FBECFE5D4E0DEBFCDBF10E0A0E6B0E027
S1130160E2E3FDE002C005900D92A637B107D9F78E
S113017020E0A6E7B0E001C01D92AA38B207E1F77B
S11301800E94E7020C9497060C940000929A00C017
S113019092980895CF93C82F662311F0909A01C0C6
S11301A090989198BC9ABD9ABE9ABF9AC798C698DF
S11301B0C598C498CC230CF4C79AC6FDC69AC5FD4D
S11301C0C59AC4FDC49A0E94C600C798C698C5982B
S11301D0C498C3FDC79AC2FDC69AC1FDC59AC0FDA5
S11301E0C49A0E94C600C49AC59AC69AC79ACF9167
S11301F00895882311F0909A01C09098919ABC9820
S1130200BD98BE98BF98929A00C0B49B02C080E18A
S113021001C080E0B5998062B6998064B79980681E
S1130220929800C0929A00C0B4998160B599826096
S1130230B6998460B79988609298089580E00E9486
S1130240F9008823DCF383E090E00197F1F780E084
S11302500E94F9000895CF93C82F0E941E0160E008
S11302608C2F0E94CA00CF91089581E00E942B0137
S11302700895CF93C82F0E941E01CA3049F48034D8
S113028010F080E001C080E480580E942B0104C07B
S113029061E08C2F0E94CA00CF910895CF93DF9321
S11302A0EC012196FC018081882329F00E94390108
S11302B089918111FBCFDF91CF9108951F93CF9343
S11302C0DF93182F889A899A8A9ABC9ABD9ABE9A03
S11302D0BF9A80E393E70197F1F7C59AC49A0E9405
S11302E0C60080EF93E20197F1F70E94C600C5E7CC
S11302F0D0E0CE010197F1F70E94C600CE0101972C
S1130300F1F7C4980E94C6002197F1F788E20E9491
S11303102B0188E00E942B010E94350186E00E9497
S11303202B01812F0E942B01DF91CF911F91089502
S11303301F920F920FB60F9211248F939F93809167
S113034076009091770001969093770080937600E1
S11303509F918F910F900FBE0F901F90189587E07B
S113036088BB88B3809588BB8FEF97E40197F1F73A
S113037000C0000083E088BB88B3809588BB8FEF02
S113038097E40197F1F700C000008BE088BB88B3C5
S1130390809588BB8FEF97E40197F1F700C00000C8
S11303A089E088BB88B3809588BB8FEF97E4019779
S11303B0F1F700C000008DE088BB88B3809588BB4E
S11303C08FEF97E40197F1F700C000008CE088BB41
S11303D088B3809588BB8FEF97E40197F1F700C04D
S11303E000008EE088BB88B3809588BB8FEF97E4CC
S11303F00197F1F700C0000086E088BB88B38095C0
S113040088BB8FEF97E40197F1F700C000000895CF
S113041086E088BB88B3809588BB8FEF97E401970B
S1130420F1F700C000008EE088BB88B3809588BBDC
S11304308FEF97E40197F1F700C000008CE088BBD0
S113044088B3809588BB8FEF97E40197F1F700C0DC
S113045000008DE088BB88B3809588BB8FEF97E45C
S11304600197F1F700C0000089E088BB88B380954C
S113047088BB8FEF97E40197F1F700C000008BE091
S113048088BB88B3809588BB8FEF97E40197F1F719
S113049000C0000083E088BB88B3809588BB8FEFE1
S11304A097E40197F1F700C0000087E088BB88B3A8
S11304B0809588BB8FEF97E40197F1F700C00000A7
S11304C008951ABA87E886B980E487B9089597B180
S11304D08F70982B97B9369A349BFECF88E18A9512
S11304E0F1F700C024B185B190E0982F8827820FDE
S11304F0911D0895CF93DF93EC01C63282E0D807B3
S113050014F40E94AF01C638D24014F00E940802CD
S1130510DF91CF9108950F931F93D89A88E18A951C
S1130520F1F700C0D8981DBC1CBC81E48EBD80E2EC
S113053088BF84E088BF08B605FEFDCF1DBC1CBC87
S113054081E08EBD80E288BF84E088BF109277008E
S11305501092760008B605FEFDCF66B577B580E04B
S113056090E0609386007093870080938800909356
S113057089000E94820329E335E445E950E40E949E
S11305800E036093820070938300809384009093A1
S1130590850008E710E022E042E00E940E04D80142
S11305A00D900020E9F7119787E0E6E6F0E001906E
S11305B00D928A95E1F70E9435018DE690E00E9444
S11305C04E01C8010E944E011F910F91089580E1D0
S11305D081BB81E28FBD8AE08EBD8EE090E099BD43
S11305E088BD8CE00E945E010E94610281E08ABBAA
S11305F080E482BB789484E089BF87E00E9467022C
S11306000E947A020E948B022FEF8FE191E0215029
S113061080409040E1F700C00000EFCF0E94220329
S11306200C94D4030E94CD0358F00E94C60340F0FA
S113063029F45F3F29F00C94BD0351110C94080474
S11306400C94C3030E94E50368F39923B1F3552383
S113065091F3951B550BBB27AA27621773078407D1
S113066038F09F5F5F4F220F331F441FAA1FA9F367
S113067035D00E2E3AF0E0E832D091505040E69555
S1130680001CCAF72BD0FE2F29D0660F771F881FB6
S1130690BB1F261737074807AB07B0E809F0BB0BA9
S11306A0802DBF01FF2793585F4F3AF09E3F5105BD
S11306B078F00C94BD030C9408045F3FE4F3983E77
S11306C0D4F3869577956795B795F7959F5FC9F7A6
S11306D0880F911D9695879597F90895E1E0660F27
S11306E0771F881FBB1F621773078407BA0720F0A0
S11306F0621B730B840BBA0BEE1F88F7E095089509
S1130700E89409C097FB3EF49095809570956195A7
S11307107F4F8F4F9F4F9923A9F0F92F96E9BB275D
S11307209395F695879577956795B795F111F8CFD9
S1130730FAF4BB0F11F460FF1BC06F5F7F4F8F4F44
S11307409F4F16C0882311F096E911C0772321F03A
S11307509EE8872F762F05C0662371F096E8862FD2
S113076070E060E02AF09A95660F771F881FDAF729
S1130770880F9695879597F9089597F99F6780E86C
S113078070E060E008959FEF80EC089500240A94DF
S11307901616170618060906089500240A94121658
S11307A01306140605060895092E0394000C11F48B
S11307B0882352F0BB0F40F4BF2B11F460FF04C038
S11307C06F5F7F4F8F4F9F4F089557FD9058440F91
S11307D0551F59F05F3F71F04795880F97FB991F9C
S11307E061F09F3F79F08795089512161306140659
S11307F0551FF2CF4695F1DF08C0161617061806E6
S1130800991FF1CF86957105610508940895E894C0
S1130810BB2766277727CB0197F90895EF920F93AB
S11308201F93CF93DF93E80147FD02C034E001C07A
S113083034E1042E000C550B57FF03C0519541952C
S11308405109E32E022F242FAE010E942E04CE0163
S1130850DF91CF911F910F91EF900895A9E0B0E03F
S1130860E4E3F4E00C9466066A01122FB02E2BE345
S1130870201720F0FF24F394F00E02C02CE3F22E94
S11308800F2D27E0AE014F5F5F4F0E948805BC012A
S11308904981842F8970813031F0E1FC06C0E0FE8B
S11308A006C090E205C09DE203C09BE201C090E057
S11308B05E2D507143FF3CC0911102C083E001C022
S11308C084E0811718F4212F281B01C020E0511166
S11308D00BC0F601822F30E2882319F03193815046
S11308E0FBCFC20ED11C20E0992329F0D6019C93A2
S11308F0F60131966F01C6010396E2FE0AC03EE49A
S1130900D6013C9341E411964C93119712963C9373
S113091006C03EE6F601308341E641833283FC01A2
S1130920322F40E2332309F442C041933150FACFCD
S113093042FF44C0911102C083E001C084E08117EA
S113094018F4212F281B01C020E051110BC0F6011F
S1130950822F30E2882319F031938150FBCFC20EED
S1130960D11C20E0992329F0D6019C93F6013196FD
S11309706F01C6010396E2FE0BC039E4D6013C9335
S11309803EE411963C93119736E412963C9307C0CB
S113099039E6F60130833EE6318336E63283FC01E4
S11309A0322F40E2332319F041933150FBCFFC0145
S11309B0E20FF11D10828EEF9FEFA6C021E030E020
S11309C0911102C020E030E0161617061CF4FB015A
S11309D0319602C0E1E0F0E02E0F3F1FBB2021F072
S11309E0EB2DF0E0319602C0E0E0F0E02E0F3F1F67
S11309F0E12FF0E02E173F071CF4121B212F01C03A
S1130A0020E08E2D887159F4F601822F30E288237C
S1130A1019F031938150FBCFC20ED11C20E09923F1
S1130A2029F0D6019C93F60131966F0151110BC048
S1130A30F601822F90E3882319F091938150FBCF24
S1130A40C20ED11C20E00F2D060F9A81342F307175
S1130A5044FF03C0913309F40150101624F4093003
S1130A6018F008E001C001E0AB0177FF02C040E0EC
S1130A7050E0FB01E41BF50BA1E0B0E0AC0FBD1F9F
S1130A80EA0FFB1F8EE2A82E4B01801A91080B2D52
S1130A9010E01195019511094F3FBFEF5B0721F459
S1130AA0D601AC9211966D01641775072CF084166B
S1130AB0950614F4818101C080E3415051093196B7
S1130AC0D60111967D014017510724F0D6018C936D
S1130AD06701E2CF6417750739F4963320F4953330
S1130AE019F4311101C081E3F6018083F701822FEB
S1130AF090E2882319F091938150FBCFF701E20F24
S1130B00F11D108280E090E02996ECE00C948206BE
S1130B10283008F027E03327DA01990F311D87FDCB
S1130B20916000966105710539F432602E5F3D9342
S1130B3030E32A95E1F708959F3F30F0803871053E
S1130B40610509F03C5F3C5F3D93913008F080689B
S1130B50911DDF93CF931F930F93FF92EF92192F61
S1130B60987F9695E92F96959695E90FFF27E2557C
S1130B70FF4F99273327EE24FF24A701E7010590AF
S1130B800894079428F4360FE71EF81E491F511DD8
S1130B90660F771F881F991F0694A1F70590079485
S1130BA028F4E70EF81E491F561FC11D770F881F32
S1130BB0991F661F0694A1F70590079428F4F80E70
S1130BC0491F561FC71FD11D880F991F661F771F06
S1130BD00694A1F70590079420F4490F561FC71FE8
S1130BE0D81F990F661F771F881F0694A9F7849151
S1130BF01095177041F0D695C79557954795F7947A
S1130C00E7941A95C1F7E4E5F0E06894159015911E
S1130C1035916591959105907FE27395E118F10AFC
S1130C20430B560BC90BD009C0F7E10CF11E431F4F
S1130C30561FC91FD01D7EF4703311F48A95E6CF78
S1130C40E894015030F0080F0AF40027021708F462
S1130C50202F2395022F7A3328F079E37D932A9568
S1130C60E9F710C07D932A9589F6069497956795C0
S1130C70379517951794E118F10A430B560BC90BD6
S1130C80D00998F023957E9173957A3308F070E338
S1130C907C932013B8F77E9170617D9330F0839537
S1130CA071E37D9370E32A95E1F71124EF90FF90AF
S1130CB00F911F91CF91DF91992787FD909508950A
S1130CC02F923F924F925F926F927F928F929F9258
S1130CD0AF92BF92CF92DF92EF92FF920F931F9346
S1130CE0CF93DF93CDB7DEB7CA1BDB0B0FB6F894F7
S1130CF0DEBF0FBECDBF09942A88398848885F8437
S1130D006E847D848C849B84AA84B984C884DF80A7
S1130D10EE80FD800C811B81AA81B981CE0FD11D8B
S1130D200FB6F894DEBF0FBECDBFED010895F89461
S1050D30FFCFEF
S1130D324144433A200020636D202020004469731B
S1090D4274203D200000B6
S9030000FC
