S01000004D61696E5F6170702E73726563EF
S11300000C94A7000C94C4000C94C4000C94C40079
S11300100C94C4000C94C4000C94C4000C94C4004C
S11300200C9463020C94C4000C94C4000C94C4009B
S11300300C94C4000C94C4000C94C4000C94C4002C
S11300400C94C4000C94C4000C94C4000C94C4001C
S11300500C94C40000407A10F35A00A0724E1809A0
S11300600010A5D4E80000E87648170000E40B541B
S1130070020000CA9A3B000000E1F50500008096EA
S11300809800000040420F000000A086010000001C
S1130090102700000000E8030000000064000000D6
S11300A000000A00000000000100000000002C769F
S11300B0D888DC674F0823DFC1DFAE59E1B1B796BA
S11300C0E5E3E453C63AE651997696E8E6C2842617
S11300D0EB898C9B62ED407C6FFCEFBC9C9F40F2F3
S11300E0BAA56FA5F490055A2AF75C936B6CF9676F
S11300F06DC11BFCE0E40D47FEF520E6B500D0ED34
S1130100902E0300943577050080841E080000209B
S11301104E0A000000C80C333333330F986E128339
S11301201141EF8D2114893BE65516CFFEE6DB180D
S1130130D1844B381BF77C1D901DA4BBE4242032D2
S113014084725E228100C9F124ECA1E53D271124CB
S11301501FBECFE5D4E0DEBFCDBF10E0A0E6B0E027
S1130160E6E2FFE002C005900D92A43CB107D9F786
S113017020E0A4ECB0E001C01D92A43EB207E1F778
S11301800E94F4020C9491070C940000AE9A00C0F3
S1130190AE980895CF93DF93D82F662311F0A89AD1
S11301A001C0A898A99887B38F6087BBC8B3C07FE4
S11301B08D2F82958F708C2B88BB0E94C600DF70B8
S11301C0DC2BD8BB0E94C600CF60C8BBDF91CF91A7
S11301D00895882311F0A89A01C0A898A99A87B312
S11301E0807F87BBAE9A00C096B3AE9800C0AE9A2B
S11301F000C026B32F70892F8295807FAE98822B02
S1130200089580E00E94E9008823DCF383E090E015
S11302100197F1F780E00E94E9000895CF93C82F79
S11302200E94010160E08C2F0E94CA00CF910895C2
S113023081E00E940E010895CF93C82F0E9401010E
S1130240CA3049F4803410F080E001C080E4805862
S11302500E940E0104C061E08C2F0E94CA00CF915D
S11302600895CF93DF93EC012196FC0180818823CC
S113027029F00E941C0189918111FBCFDF91CF915C
S113028008951F93CF93DF93182F87B38F6087BB95
S1130290A09AA19AA69A80E393E70197F1F7C19AED
S11302A0C09A0E94C60080EF93E20197F1F70E9482
S11302B0C600C5E7D0E0CE010197F1F70E94C60061
S11302C0CE010197F1F7C0980E94C6002197F1F77B
S11302D088E20E940E0188E00E940E010E9418012B
S11302E086E00E940E01812F0E940E01DF91CF91C2
S11302F01F91089580E788BB88B3809588BB8FEFF2
S113030093E20197F1F700C0000080E388BB88B353
S1130310809588BB8FEF93E20197F1F700C000004E
S113032080EB88BB88B3809588BB8FEF93E20197FD
S1130330F1F700C0000080E988BB88B3809588BBD2
S11303408FEF93E20197F1F700C0000080ED88BBC6
S113035088B3809588BB8FEF93E20197F1F700C0D3
S1130360000080EC88BB88B3809588BB8FEF93E254
S11303700197F1F700C0000080EE88BB88B3809538
S113038088BB8FEF93E20197F1F700C0000080E68D
S113039088BB88B3809588BB8FEF93E20197F1F710
S11303A000C00000089580E688BB88B3809588BBB0
S11303B08FEF93E20197F1F700C0000080EE88BB55
S11303C088B3809588BB8FEF93E20197F1F700C063
S11303D0000080EC88BB88B3809588BB8FEF93E2E4
S11303E00197F1F700C0000080ED88BB88B38095C9
S11303F088BB8FEF93E20197F1F700C0000080E91A
S113040088BB88B3809588BB8FEF93E20197F1F79F
S113041000C0000080EB88BB88B3809588BB8FEF59
S113042093E20197F1F700C0000080E388BB88B332
S1130430809588BB8FEF93E20197F1F700C000002D
S113044080E788BB88B3809588BB8FEF93E20197E0
S1130450F1F700C0000008950F931F93CF93DF932B
S1130460EC018A018617970714F40E947A010C178D
S11304701D0714F40E94D301DF91CF911F910F91B6
S113048008951ABA87E886B980E487B9089597B1C0
S11304908F70982B97B9369A349BFECF88E18A9552
S11304A0F1F700C024B185B190E0982F8827820F1E
S11304B0911D089580E281BB80E482BB789484E03E
S11304C089BF1FBC08951F920F920FB60F9211247B
S11304D08F939F938091CC009091CD00019690933F
S11304E0CD008093CC009F918F910F900FBE0F9001
S11304F01F901895959A88E18A95F1F700C0959810
S11305001DBC1CBC81E48EBD80E288BF84E088BF32
S113051008B605FEFDCF1DBC1CBC81E08EBD80E28B
S113052088BF84E088BF1092CD001092CC0008B63A
S113053005FEFDCF66B577B580E090E06093E000FE
S11305407093E1008093E2009093E3000E944C04D6
S113055023EC35E546ED53E40E94D8036093DC00B8
S11305607093DD008093DE009093DF0008950F9375
S11305701F9302ED10E022E042E00E94D804D8016B
S11305800D900020E9F7119786E0E2E6F0E0019093
S11305900D928A95E1F788E690E00E94310188EC9B
S11305A00E940E01C8010E9431011F910F9108950C
S11305B080E884BB81E28FBD8AE08EBD8EE090E04E
S11305C099BD88BD8CE00E94410181E081BB089502
S11305D044960E942A076093CE007093CF008093C4
S11305E0D0009093D10008950E94D8020E94410245
S11305F080EF87BB0E945A028FE088BB17BA80E065
S11306000E94470242E952E06EEF71E00E942C0220
S11306108091CA009091CB00449731F40E947A02F1
S11306201092CB001092CA008091600090916100FA
S1130630892B69F00E94180181E790E00E94310142
S113064080EC0E940E0181E890E00E943101B09993
S11306500BC081E090E09093C9008093C800109291
S113066061001092600007C08091C8009091C90099
S1130670892B09F499C00E9418018FE890E00E9428
S1130680310180EC0E940E018CE990E00E9431015E
S113069087EC0E940E0182EA90E00E943101B09939
S11306A01EC08091C8009091C900892B09F47DC0B7
S11306B04091DC005091DD006091DE007091DF001C
S11306C085E190E00E9430071092C9001092C800A2
S11306D081E090E09093C7008093C60066C0B19912
S11306E011C08091C8009091C900892B89F01092A3
S11306F0C9001092C80081E090E09093C5008093F7
S1130700C40006C08091C8009091C900892BE1F50E
S11307108091C6009091C700892BE9F081E090E0B8
S11307200E94E8020E94180188EA90E00E943101C8
S113073080EC0E940E016091CE007091CF008091F8
S1130740D0009091D1000E94B7028091C80090918E
S1130750C900892BC9F48091C4009091C500892BEC
S113076099F00E94180186EB90E00E94310180EC20
S11307700E940E016091DC007091DD008091DE002A
S11307809091DF000E94B7028091CA009091CB0043
S113079001969093CB008093CA008FEF97E4019762
S11307A0F1F700C000002BCF86B3B199ABCFB0CF27
S11307B00E94EC030C949E040E94970458F00E943B
S11307C0900440F029F45F3F29F00C948704511100
S11307D00C94D2040C948D040E94AF0468F3992302
S11307E0B1F3552391F3951B550BBB27AA27621729
S11307F07307840738F09F5F5F4F220F331F441F36
S1130800AA1FA9F335D00E2E3AF0E0E832D0915069
S11308105040E695001CCAF72BD0FE2F29D0660F56
S1130820771F881FBB1F261737074807AB07B0E899
S113083009F0BB0B802DBF01FF2793585F4F3AF09F
S11308409E3F510578F00C9487040C94D2045F3FCA
S1130850E4F3983ED4F3869577956795B795F79525
S11308609F5FC9F7880F911D9695879597F908950D
S1130870E1E0660F771F881FBB1F621773078407A9
S1130880BA0720F0621B730B840BBA0BEE1F88F7B8
S1130890E0950895E89409C097FB3EF490958095FF
S11308A0709561957F4F8F4F9F4F9923A9F0F92F32
S11308B096E9BB279395F695879577956795B795B0
S11308C0F111F8CFFAF4BB0F11F460FF1BC06F5F96
S11308D07F4F8F4F9F4F16C0882311F096E911C0A8
S11308E0772321F09EE8872F762F05C0662371F0C9
S11308F096E8862F70E060E02AF09A95660F771FDD
S1130900881FDAF7880F9695879597F9089597F9D0
S11309109F6780E870E060E008959FEF80EC0895A1
S113092000240A94161617061806090608950024CA
S11309300A9412161306140605060895092E039444
S1130940000C11F4882352F0BB0F40F4BF2B11F4B8
S113095060FF04C06F5F7F4F8F4F9F4F089557FD17
S11309609058440F551F59F05F3F71F04795880F19
S113097097FB991F61F09F3F79F0879508951216B0
S113098013061406551FF2CF4695F1DF08C016165C
S113099017061806991FF1CF86957105610508940D
S11309A00895E894BB2766277727CB0197F9089524
S11309B0EF920F931F93CF93DF93E80147FD02C09B
S11309C034E001C034E1042E000C550B57FF03C082
S11309D0519541955109E32E022F242FAE010E9417
S11309E0F804CE01DF91CF911F910F91EF900895FC
S11309F0A9E0B0E0EEEFF4E00C9460076A01122F76
S1130A00B02E2BE3201720F0FF24F394F00E02C045
S1130A102CE3F22E0F2D27E0AE014F5F5F4F0E94B3
S1130A205206BC014981842F8970813031F0E1FC88
S1130A3006C0E0FE06C090E205C09DE203C09BE252
S1130A4001C090E05E2D507143FF3CC0911102C083
S1130A5083E001C084E0811718F4212F281B01C012
S1130A6020E051110BC0F601822F30E2882319F0E7
S1130A7031938150FBCFC20ED11C20E0992329F081
S1130A80D6019C93F60131966F01C6010396E2FEEE
S1130A900AC03EE4D6013C9341E411964C9311976D
S1130AA012963C9306C03EE6F601308341E641834C
S1130AB03283FC01322F40E2332309F442C04193D4
S1130AC03150FACF42FF44C0911102C083E001C00B
S1130AD084E0811718F4212F281B01C020E0511154
S1130AE00BC0F601822F30E2882319F03193815034
S1130AF0FBCFC20ED11C20E0992329F0D6019C9390
S1130B00F60131966F01C6010396E2FE0BC039E48B
S1130B10D6013C933EE411963C93119736E4129629
S1130B203C9307C039E6F60130833EE6318336E66E
S1130B303283FC01322F40E2332319F041933150C8
S1130B40FBCFFC01E20FF11D10828EEF9FEFA6C0D8
S1130B5021E030E0911102C020E030E016161706C3
S1130B601CF4FB01319602C0E1E0F0E02E0F3F1FC0
S1130B70BB2021F0EB2DF0E0319602C0E0E0F0E084
S1130B802E0F3F1FE12FF0E02E173F071CF4121B1E
S1130B90212F01C020E08E2D887159F4F601822F97
S1130BA030E2882319F031938150FBCFC20ED11C5F
S1130BB020E0992329F0D6019C93F60131966F0128
S1130BC051110BC0F601822F90E3882319F0919301
S1130BD08150FBCFC20ED11C20E00F2D060F9A814D
S1130BE0342F307144FF03C0913309F401501016BF
S1130BF024F4093018F008E001C001E0AB0177FFEC
S1130C0002C040E050E0FB01E41BF50BA1E0B0E0C2
S1130C10AC0FBD1FEA0FFB1F8EE2A82E4B01801AFA
S1130C2091080B2D10E01195019511094F3FBFEF6D
S1130C305B0721F4D601AC9211966D016417750718
S1130C402CF08416950614F4818101C080E3415090
S1130C5051093196D60111967D014017510724F0B0
S1130C60D6018C936701E2CF6417750739F4963384
S1130C7020F4953319F4311101C081E3F601808326
S1130C80F701822F90E2882319F091938150FBCFD2
S1130C90F701E20FF11D108280E090E02996ECE06C
S1130CA00C947C07283008F027E03327DA01990FE9
S1130CB0311D87FD916000966105710539F432603C
S1130CC02E5F3D9330E32A95E1F708959F3F30F07E
S1130CD080387105610509F03C5F3C5F3D939130BC
S1130CE008F08068911DDF93CF931F930F93FF92B9
S1130CF0EF92192F987F9695E92F96959695E90F7F
S1130D00FF27E255FF4F99273327EE24FF24A7013D
S1130D10E70105900894079428F4360FE71EF81E9F
S1130D20491F511D660F771F881F991F0694A1F74D
S1130D300590079428F4E70EF81E491F561FC11D9D
S1130D40770F881F991F661F0694A1F705900794D3
S1130D5028F4F80E491F561FC71FD11D880F991F6D
S1130D60661F771F0694A1F70590079420F4490F96
S1130D70561FC71FD81F990F661F771F881F069419
S1130D80A9F784911095177041F0D695C79557959A
S1130D904795F794E7941A95C1F7E4E5F0E0689471
S1130DA01590159135916591959105907FE2739514
S1130DB0E118F10A430B560BC90BD009C0F7E10C3B
S1130DC0F11E431F561FC91FD01D7EF4703311F44A
S1130DD08A95E6CFE894015030F0080F0AF4002712
S1130DE0021708F4202F2395022F7A3328F079E391
S1130DF07D932A95E9F710C07D932A9589F6069488
S1130E0097956795379517951794E118F10A430B51
S1130E10560BC90BD00998F023957E9173957A33BC
S1130E2008F070E37C932013B8F77E9170617D9392
S1130E3030F0839571E37D9370E32A95E1F71124F3
S1130E40EF90FF900F911F91CF91DF91992787FD2C
S1130E5090950895A6E1B0E044E050E00C943F077B
S1130E60242F0E944E07252F0E944E070C9438070A
S1130E700E944D07272F0C944E07DC01CB01FC0187
S1130E80E199FECF06C0FFBBEEBBE09A31960DB2EE
S1130E900D9241505040B8F70895262FE199FECFA6
S1130EA09FBB8EBB2DBB0FB6F894E29AE19A0FBE9E
S1130EB0019608952F923F924F925F926F927F9284
S1130EC08F929F92AF92BF92CF92DF92EF92FF9256
S1130ED00F931F93CF93DF93CDB7DEB7CA1BDB0B02
S1130EE00FB6F894DEBF0FBECDBF09942A883988A7
S1130EF048885F846E847D848C849B84AA84B984AE
S1130F00C884DF80EE80FD800C811B81AA81B981B9
S1130F10CE0FD11D0FB6F894DEBF0FBECDBFED01CD
S1090F200895F894FFCFD0
S1130F26010020636D202000566973696E613A20C2
S1130F360041646A757374206869676874212121A5
S1130F46004B657931202D2D3E20444F4E450053EC
S1130F56454C45435420555345523A005553455242
S1130F663100555345523200555345523120534AA8
S1130F76454445434100555345523220534A45445E
S1070F86454341009A
S9030000FC
