:100000000C942A000C9447000C9447000C94470071
:100010000C9447000C9447000C9447000C94470044
:100020000C94E6010C9447000C9447000C94470094
:100030000C9447000C9447000C9447000C94470024
:100040000C9447000C9447000C9447000C94470014
:100050000C94470011241FBECFE5D4E0DEBFCDBF16
:1000600010E0A0E6B0E0E8E2F8E002C005900D92F2
:10007000A03DB107D9F720E0A0EDB0E001C01D928E
:10008000AC3EB207E1F70E944A020C9412040C94B1
:100090000000AE9A00C0AE980895CF93DF93D82F9A
:1000A000662311F0A89A01C0A898A99887B38F6019
:1000B00087BBC8B3C07F8D2F82958F708C2B88BB78
:1000C0000E944900DF70DC2BD8BB0E944900CF6042
:1000D000C8BBDF91CF910895882311F0A89A01C081
:1000E000A898A99A87B3807F87BBAE9A00C096B3C1
:1000F000AE9800C0AE9A00C026B32F70892F8295AB
:10010000807FAE98822B089580E00E946C00882347
:10011000DCF383E090E00197F1F780E00E946C004F
:100120000895CF93C82F0E94840060E08C2F0E9416
:100130004D00CF91089581E00E9491000895CF93E2
:10014000C82F0E948400CA3049F4803410F080E047
:1001500001C080E480580E94910004C061E08C2FAF
:100160000E944D00CF910895CF93DF93EC0121962B
:10017000FC018081882329F00E949F0089918111D0
:10018000FBCFDF91CF9108951F93CF93DF93182F6B
:1001900087B38F6087BBA09AA19AA69A80E393E762
:1001A0000197F1F7C19AC09A0E94490080EF93E24B
:1001B0000197F1F70E944900C5E7D0E0CE01019711
:1001C000F1F70E944900CE010197F1F7C0980E9413
:1001D00049002197F1F788E20E94910088E00E948F
:1001E00091000E949B0086E00E949100812F0E9456
:1001F0009100DF91CF911F91089580E788BB88B36C
:10020000809588BB8FEF93E20197F1F700C0000063
:1002100080E388BB88B3809588BB8FEF93E201971A
:10022000F1F700C0000080EB88BB88B3809588BBE5
:100230008FEF93E20197F1F700C0000080E988BBDF
:1002400088B3809588BB8FEF93E20197F1F700C0E8
:10025000000080ED88BB88B3809588BB8FEF93E268
:100260000197F1F700C0000080EC88BB88B380954F
:1002700088BB8FEF93E20197F1F700C0000080EE9A
:1002800088BB88B3809588BB8FEF93E20197F1F725
:1002900000C0000080E688BB88B3809588BB8FEFE4
:1002A00093E20197F1F700C00000089580E688BB53
:1002B00088B3809588BB8FEF93E20197F1F700C078
:1002C000000080EE88BB88B3809588BB8FEF93E2F7
:1002D0000197F1F700C0000080EC88BB88B38095DF
:1002E00088BB8FEF93E20197F1F700C0000080ED2B
:1002F00088BB88B3809588BB8FEF93E20197F1F7B5
:1003000000C0000080E988BB88B3809588BB8FEF70
:1003100093E20197F1F700C0000080EB88BB88B33F
:10032000809588BB8FEF93E20197F1F700C0000042
:1003300080E388BB88B3809588BB8FEF93E20197F9
:10034000F1F700C0000080E788BB88B3809588BBC8
:100350008FEF93E20197F1F700C0000008950F932B
:100360001F93CF93DF93EC018A018617970714F44C
:100370000E94FD000C171D0714F40E945601DF9126
:10038000CF911F910F9108951ABA87E886B980E43A
:1003900087B9089597B18F70982B97B9369A349B87
:1003A000FECF88E18A95F1F700C024B185B190E0D5
:1003B000982F8827820F911D089580E281BB80E4E9
:1003C00082BB789484E089BF1FBC08951F920F926E
:1003D0000FB60F9211248F939F938091D800909124
:1003E000D90001969093D9008093D8009F918F9166
:1003F0000F900FBE0F901F901895959A88E18A95DF
:10040000F1F700C095981DBC1CBC81E48EBD80E254
:1004100088BF84E088BF08B605FEFDCF1DBC1CBCAC
:1004200081E08EBD80E288BF84E088BF1092D90051
:100430001092D80008B605FEFDCF66B577B580E00E
:1004400090E06093E8007093E9008093EA00909355
:10045000EB000E94860323EC35E546ED53E40E9451
:1004600012036093E4007093E5008093E60090939C
:10047000E700089580E884BB81E28FBD8AE08EBDED
:100480008EE090E099BD88BD8CE00E94C40081E0C0
:1004900081BB08950E943A020E94C40180EF87BB8D
:1004A0000E94DD018FE088BB17BAC1E0D0E080E098
:1004B0000E94CA0142E952E06EEF71E00E94AF0172
:1004C0008091D6009091D700449731F40E94FD01AD
:1004D0001092D7001092D600809160009091610038
:1004E000892B69F00E949B0087E790E00E94B4008E
:1004F00080EC0E94910087E890E00E94B400B099DF
:1005000009C0D093D500C093D4001092610010921E
:10051000600007C08091D4009091D500892B09F428
:100520007EC00E949B0085E990E00E94B40080ECB0
:100530000E9491008AEA90E00E94B40087EC0E9439
:10054000910089EC90E00E94B400B09912C08091B3
:10055000D4009091D500892B09F45EC01092D5008B
:100560001092D400D093D300C093D200B19B03C0AB
:100570001DC0B1990FC01092D5001092D400D09335
:10058000D100C093D0008091D2009091D300892BEC
:1005900069F425C08091D4009091D500892B61F534
:1005A0008091D2009091D300892B99F00E949B00FA
:1005B00082EA90E00E94B40080EC0E94910080EBFF
:1005C00090E00E94B4008091D4009091D500892BD6
:1005D00099F48091D0009091D100892B69F00E940C
:1005E0009B0081EC90E00E94B40080EC0E9491009E
:1005F00080EB90E00E94B4008091D6009091D700EB
:1006000001969093D7008093D6008FEF97E40197DF
:10061000F1F700C000004BCFB199C2CFACCFB09B77
:10062000FBCFA7CF0E9426030C94D8030E94D103CE
:1006300058F00E94CA0340F029F45F3F29F00C945F
:10064000C10351110C940C040C94C7030E94E903DC
:1006500068F39923B1F3552391F3951B550BBB27F1
:10066000AA2762177307840738F09F5F5F4F220F36
:10067000331F441FAA1FA9F335D00E2E3AF0E0E82D
:1006800032D091505040E695001CCAF72BD0FE2F77
:1006900029D0660F771F881FBB1F2617370748070B
:1006A000AB07B0E809F0BB0B802DBF01FF279358C3
:1006B0005F4F3AF09E3F510578F00C94C1030C94C3
:1006C0000C045F3FE4F3983ED4F3869577956795E5
:1006D000B795F7959F5FC9F7880F911D96958795F8
:1006E00097F90895E1E0660F771F881FBB1F621717
:1006F00073078407BA0720F0621B730B840BBA0BD5
:10070000EE1F88F7E0950895E89409C097FB3EF442
:1007100090958095709561957F4F8F4F9F4F99234E
:10072000A9F0F92F96E9BB279395F69587957795CC
:100730006795B795F111F8CFFAF4BB0F11F460FF8C
:100740001BC06F5F7F4F8F4F9F4F16C0882311F0E4
:1007500096E911C0772321F09EE8872F762F05C0F8
:10076000662371F096E8862F70E060E02AF09A9593
:10077000660F771F881FDAF7880F9695879597F988
:10078000089597F99F6780E870E060E008959FEF13
:1007900080EC089500240A94161617061806090618
:1007A000089500240A9412161306140605060895E7
:1007B000092E0394000C11F4882352F0BB0F40F46F
:1007C000BF2B11F460FF04C06F5F7F4F8F4F9F4FAF
:1007D000089557FD9058440F551F59F05F3F71F031
:1007E0004795880F97FB991F61F09F3F79F0879598
:1007F0000895121613061406551FF2CF4695F1DF21
:1008000008C0161617061806991FF1CF86957105B0
:10081000610508940895E894BB2766277727CB01E4
:0808200097F90895F894FFCF49
:10082800010020636D2020200044697374203D205E
:10083800004144433A200041646A75737420686932
:10084800676874212121004B657931202D2D3E20C8
:10085800444F4E450053454C45435420555345524B
:100868003A0057454C434F4D4520555345523100AA
:10087800534A454445434120504F5A4943494A4108
:100888000057454C434F4D452055534552320000C3
:00000001FF
