S01000004D61696E5F6170702E73726563EF
S11300000C942A000C9447000C9447000C9447006D
S11300100C9447000C9447000C9447000C94470040
S11300200C9404020C9447000C9447000C94470071
S11300300C9447000C9447000C9447000C94470020
S11300400C9447000C9447000C9447000C94470010
S11300500C94470011241FBECFE5D4E0DEBFCDBF12
S113006010E0A0E6B0E0E6E6F7E002C005900D92ED
S1130070A039B107D9F720E0A0E9B0E001C01D9292
S1130080A63AB207E1F70E9466020C94B1030C94FD
S11300900000AE9A00C0AE980895CF93C82F66238F
S11300A011F0A89A01C0A898A998BC9ABD9ABE9AC2
S11300B0BF9AC798C698C598C498CC230CF4C79A1D
S11300C0C6FDC69AC5FDC59AC4FDC49A0E944900DE
S11300D0C798C698C598C498C3FDC79AC2FDC69A66
S11300E0C1FDC59AC0FDC49A0E944900C49AC59A2C
S11300F0C69AC79ACF910895882311F0A89A01C08F
S1130100A898A99ABC98BD98BE98BF98AE9A00C00A
S1130110B49B02C080E101C080E0B5998062B699C9
S11301208064B7998068AE9800C0AE9A00C0B49954
S11301308160B5998260B6998460B7998860AE98F9
S1130140089580E00E947C008823DCF383E090E043
S11301500197F1F780E00E947C000895CF93C82FA7
S11301600E94A10060E08C2F0E944D00CF91089561
S113017081E00E94AE000895CF93C82F0E94A10091
S1130180CA3049F4803410F080E001C080E4805823
S11301900E94AE0004C061E08C2F0E944D00CF91FC
S11301A00895CF93DF93EC012196FC01808188238D
S11301B029F00E94BC0089918111FBCFDF91CF917E
S11301C008951F93CF93DF93182FA09AA19AA69A0C
S11301D0BC9ABD9ABE9ABF9A80E393E70197F1F760
S11301E0C59AC49A0E94490080EF93E20197F1F7FF
S11301F00E944900C5E7D0E0CE010197F1F70E94C3
S11302004900CE010197F1F7C4980E944900219753
S1130210F1F788E20E94AE0088E00E94AE000E94DE
S1130220B80086E00E94AE00812F0E94AE00DF91EC
S1130230CF911F91089587E088BB88B3809588BBD0
S11302408FEF93E20197F1F700C0000083E088BBD1
S113025088B3809588BB8FEF93E20197F1F700C0D4
S113026000008BE088BB88B3809588BB8FEF93E256
S11302700197F1F700C0000089E088BB88B380953E
S113028088BB8FEF93E20197F1F700C000008DE087
S113029088BB88B3809588BB8FEF93E20197F1F711
S11302A000C000008CE088BB88B3809588BB8FEFCA
S11302B093E20197F1F700C000008EE088BB88B399
S11302C0809588BB8FEF93E20197F1F700C000009F
S11302D086E088BB88B3809588BB8FEF93E2019753
S11302E0F1F700C00000089586E088BB88B38095CC
S11302F088BB8FEF93E20197F1F700C000008EE016
S113030088BB88B3809588BB8FEF93E20197F1F7A0
S113031000C000008CE088BB88B3809588BB8FEF59
S113032093E20197F1F700C000008DE088BB88B329
S1130330809588BB8FEF93E20197F1F700C000002E
S113034089E088BB88B3809588BB8FEF93E20197DF
S1130350F1F700C000008BE088BB88B3809588BBB0
S11303608FEF93E20197F1F700C0000083E088BBB0
S113037088B3809588BB8FEF93E20197F1F700C0B3
S1130380000087E088BB88B3809588BB8FEF93E239
S11303900197F1F700C0000008950F931F93CF93C6
S11303A0DF93EC018A018617970714F40E941B015E
S11303B00C171D0714F40E947401DF91CF911F9153
S11303C00F9108951ABA87E886B980E487B9089529
S11303D097B18F70982B97B9369A349BFECF88E1EA
S11303E08A95F1F700C024B185B190E0982F882751
S11303F0820F911D089581E081BB80E482BB7894D3
S113040084E089BF1FBC08951F920F920FB60F920C
S113041011248F939F938091920090919300019661
S113042090939300809392009F918F910F900FBEB1
S11304300F901F901895909A88E18A95F1F700C063
S113044090981DBC1CBC81E48EBD80E288BF84E012
S113045088BF08B605FEFDCF1DBC1CBC81E08EBD67
S113046080E288BF84E088BF1092930010929200CB
S113047008B605FEFDCF66B577B580E090E06093E1
S1130480A2007093A3008093A4009093A5000E94FF
S1130490250323EC35E546ED53E40E94B102609355
S11304A09E0070939F008093A0009093A1000895F4
S11304B080E884BB81E28FBD8AE08EBD8EE090E04F
S11304C099BD88BD8CE00E94E10008950E94580205
S11304D00E94E2018FE087BB0E94FB0180E00E9442
S11304E0E80142E952E06EEF71E00E94CD01809193
S11304F0900090919100449731F40E941B02109255
S11305009100109290000E94B80085E790E00E944C
S1130510D10080EC0E94AE0082E890E00E94D100FD
S113052087EC0E94AE0088E890E00E94D100B09B66
S113053007C08EEC0E94AE008EE890E00E94D100CD
S113054086B38091900090919100019690939100D0
S1130550809390008FEF97E40197F1F700C00000BB
S1130560BDCF0E94C5020C9477030E94700358F01B
S11305700E94690340F029F45F3F29F00C94600362
S113058051110C94AB030C9466030E94880368F326
S11305909923B1F3552391F3951B550BBB27AA2738
S11305A062177307840738F09F5F5F4F220F331F72
S11305B0441FAA1FA9F335D00E2E3AF0E0E832D03A
S11305C091505040E695001CCAF72BD0FE2F29D03D
S11305D0660F771F881FBB1F261737074807AB070F
S11305E0B0E809F0BB0B802DBF01FF2793585F4F84
S11305F03AF09E3F510578F00C9460030C94AB03E1
S11306005F3FE4F3983ED4F3869577956795B79565
S1130610F7959F5FC9F7880F911D9695879597F970
S11306200895E1E0660F771F881FBB1F62177307E9
S11306308407BA0720F0621B730B840BBA0BEE1FFE
S113064088F7E0950895E89409C097FB3EF49095E7
S11306508095709561957F4F8F4F9F4F9923A9F097
S1130660F92F96E9BB279395F69587957795679526
S1130670B795F111F8CFFAF4BB0F11F460FF1BC06A
S11306806F5F7F4F8F4F9F4F16C0882311F096E9FD
S113069011C0772321F09EE8872F762F05C06623AB
S11306A071F096E8862F70E060E02AF09A95660F64
S11306B0771F881FDAF7880F9695879597F908951D
S11306C097F99F6780E870E060E008959FEF80EC01
S11306D0089500240A9416161706180609060895A4
S11306E000240A9412161306140605060895092E0A
S11306F00394000C11F4882352F0BB0F40F4BF2B79
S113070011F460FF04C06F5F7F4F8F4F9F4F0895B8
S113071057FD9058440F551F59F05F3F71F04795AE
S1130720880F97FB991F61F09F3F79F08795089593
S1130730121613061406551FF2CF4695F1DF08C0B2
S1130740161617061806991FF1CF869571056105CF
S113075008940895E894BB2766277727CB0197F977
S10907600895F894FFCF98
S113076620636D2020200044697374203D200041DD
S113077644433A200053454C45435420555345526F
S11307863A005553455231005553455232005400F0
S9030000FC
