S01000004D61696E5F6170702E73726563EF
S11300000C94A7000C94C4000C94C4000C94C40079
S11300100C94C4000C94C4000C94C4000C94C4004C
S11300200C9463020C94C4000C94C4000C94C4009B
S11300300C94C4000C94C4000C94C4000C94C4002C
S11300400C94C4000C94C4000C94C4000C94C4001C
S11300500C94C40000407A10F35A00A0724E1809A0
S11300600010A5D4E80000E87648170000E40B541B
S1130070020000CA9A3B000000E1F50500008096EA
S11300809800000040420F000000A086010000001C
S1130090102700000000E8030000000064000000D6
S11300A000000A00000000000100000000002C769F
S11300B0D888DC674F0823DFC1DFAE59E1B1B796BA
S11300C0E5E3E453C63AE651997696E8E6C2842617
S11300D0EB898C9B62ED407C6FFCEFBC9C9F40F2F3
S11300E0BAA56FA5F490055A2AF75C936B6CF9676F
S11300F06DC11BFCE0E40D47FEF520E6B500D0ED34
S1130100902E0300943577050080841E080000209B
S11301104E0A000000C80C333333330F986E128339
S11301201141EF8D2114893BE65516CFFEE6DB180D
S1130130D1844B381BF77C1D901DA4BBE4242032D2
S113014084725E228100C9F124ECA1E53D271124CB
S11301501FBECFE5D4E0DEBFCDBF10E0A0E6B0E027
S1130160EEE4F1E102C005900D92A43CB107D9F789
S113017020E0A4ECB0E001C01D92A93EB207E1F773
S11301800E94F5020C94A5080C940000AE9A00C0DD
S1130190AE980895CF93DF93D82F662311F0A89AD1
S11301A001C0A898A99887B38F6087BBC8B3C07FE4
S11301B08D2F82958F708C2B88BB0E94C600DF70B8
S11301C0DC2BD8BB0E94C600CF60C8BBDF91CF91A7
S11301D00895882311F0A89A01C0A898A99A87B312
S11301E0807F87BBAE9A00C096B3AE9800C0AE9A2B
S11301F000C026B32F70892F8295807FAE98822B02
S1130200089580E00E94E9008823DCF383E090E015
S11302100197F1F780E00E94E9000895CF93C82F79
S11302200E94010160E08C2F0E94CA00CF910895C2
S113023081E00E940E010895CF93C82F0E9401010E
S1130240CA3049F4803410F080E001C080E4805862
S11302500E940E0104C061E08C2F0E94CA00CF915D
S11302600895CF93DF93EC012196FC0180818823CC
S113027029F00E941C0189918111FBCFDF91CF915C
S113028008951F93CF93DF93182F87B38F6087BB95
S1130290A09AA19AA69A80E393E70197F1F7C19AED
S11302A0C09A0E94C60080EF93E20197F1F70E9482
S11302B0C600C5E7D0E0CE010197F1F70E94C60061
S11302C0CE010197F1F7C0980E94C6002197F1F77B
S11302D088E20E940E0188E00E940E010E9418012B
S11302E086E00E940E01812F0E940E01DF91CF91C2
S11302F01F91089580E788BB88B3809588BB8FEFF2
S113030093E20197F1F700C0000080E388BB88B353
S1130310809588BB8FEF93E20197F1F700C000004E
S113032080EB88BB88B3809588BB8FEF93E20197FD
S1130330F1F700C0000080E988BB88B3809588BBD2
S11303408FEF93E20197F1F700C0000080ED88BBC6
S113035088B3809588BB8FEF93E20197F1F700C0D3
S1130360000080EC88BB88B3809588BB8FEF93E254
S11303700197F1F700C0000080EE88BB88B3809538
S113038088BB8FEF93E20197F1F700C0000080E68D
S113039088BB88B3809588BB8FEF93E20197F1F710
S11303A000C00000089580E688BB88B3809588BBB0
S11303B08FEF93E20197F1F700C0000080EE88BB55
S11303C088B3809588BB8FEF93E20197F1F700C063
S11303D0000080EC88BB88B3809588BB8FEF93E2E4
S11303E00197F1F700C0000080ED88BB88B38095C9
S11303F088BB8FEF93E20197F1F700C0000080E91A
S113040088BB88B3809588BB8FEF93E20197F1F79F
S113041000C0000080EB88BB88B3809588BB8FEF59
S113042093E20197F1F700C0000080E388BB88B332
S1130430809588BB8FEF93E20197F1F700C000002D
S113044080E788BB88B3809588BB8FEF93E20197E0
S1130450F1F700C0000008950F931F93CF93DF932B
S1130460EC018A018617970714F40E947A010C178D
S11304701D0714F40E94D301DF91CF911F910F91B6
S113048008951ABA87E886B980E487B9089597B1C0
S11304908F70982B97B9369A349BFECF88E18A9552
S11304A0F1F700C024B185B190E0982F8827820F1E
S11304B0911D089580E281BB80E482BB789484E03E
S11304C089BF1FBC08951F920F920FB60F9211247B
S11304D08F939F938091CC009091CD00019690933F
S11304E0CD008093CC009F918F910F900FBE0F9001
S11304F01F901895959A88E18A95F1F700C0959810
S11305001DBC1CBC81E48EBD80E288BF84E088BF32
S113051008B605FEFDCF1DBC1CBC81E08EBD80E28B
S113052088BF84E088BF1092CD001092CC0008B63A
S113053005FEFDCF66B577B580E090E06093E500F9
S11305407093E6008093E7009093E8000E946005B2
S113055023EC35E546ED53E40E94B6046093E100D4
S11305607093E2008093E3009093E40008950F9366
S11305701F9302ED10E022E042E00E94EC050E948D
S11305801801C8010E9431011F910F91089580E85C
S113059084BB81E28FBD8AE08EBD8EE090E099BD80
S11305A088BD8CE00E94410181E081BB08958C5993
S11305B09F4F0E943E086093CE007093CF008093BB
S11305C0D0009093D1000E942805CB0108950E9489
S11305D07A020E94B7022FEF8FE793E42150804004
S11305E09040E1F700C0000008950E94C7020E94F5
S11305F0410280EF87BB0E945A028FE088BB17BA82
S113060001E010E080E00E944702EC01809160006C
S113061090916100892B09F49BC10E94180184E622
S113062090E00E94310180EC0E940E0184E790E08A
S11306300E943101B09912C01093CB000093CA00FC
S113064010926100109260002FEF8FE794E0215028
S113065080409040E1F700C0000021C0B19912C071
S11306601093C7000093C6001092610010926000BE
S11306702FEF8FE794E0215080409040E1F700C0D5
S113068000000DC0B2990BC00E94E7022FEF8FE764
S113069094E0215080409040E1F700C00000809138
S11306A0CA009091CB00892B09F4A1C0809160000D
S11306B090916100892B09F044C11092C7001092F7
S11306C0C600C8010E94D702892BB1F0C8010E945C
S11306D0D702BC01990F880B990B0E9460056093A7
S11306E0E1007093E2008093E3009093E4001093A0
S11306F0C9000093C8003AC00E94180184E890E041
S11307000E94310180EC0E940E0185E990E00E9474
S1130710310142E952E06EEF71E0CE010E942C02F9
S1130720B0991DC00E947A02AB01BC014093E10064
S11307305093E2006093E3007093E40085E690E058
S11307400E9444081093C9000093C8002FEF8FE75C
S113075094E0215080409040E1F700C00000809177
S1130760C8009091C900892B09F441C00E94180166
S113077084EA90E00E94310180EC0E940E0185EB36
S113078090E00E943101B09909C02FEF8FE794E007
S1130790215080409040E1F700C00000B19918C09A
S11307A040E050E0BA0185E690E00E9444081093CE
S11307B06100009360001092C9001092C8002FEFEE
S11307C08FE794E0215080409040E1F700C00000A2
S11307D0B2990DC010936100009360002FEF8FE772
S11307E094E0215080409040E1F700C000008091E7
S11307F0C6009091C700892B09F4A3C080916000C2
S113080090916100892B09F09CC01092CB0010924A
S1130810CA0082E090E00E94D702892BB9F082E0FE
S113082090E00E94D702BC01990F880B990B0E949B
S113083060056093E1007093E2008093E30090937D
S1130840E4001093C5000093C4003AC00E9418014C
S113085084E890E00E94310180EC0E940E0185E959
S113086090E00E94310142E952E06EEF71E0CE0166
S11308700E942C02B0991DC00E947A02AB01BC01F7
S11308804093E1005093E2006093E3007093E4002E
S113089086E690E00E9444081093C5000093C400CB
S11308A02FEF8FE794E0215080409040E1F700C0A3
S11308B000008091C4009091C500892B09F441C0C7
S11308C00E94180184EA90E00E94310180EC0E94A9
S11308D00E0185EB90E00E943101B09909C02FEF21
S11308E08FE794E0215080409040E1F700C0000081
S11308F0B19918C040E050E0BA0186E690E00E9449
S1130900440810936100009360001092C500109297
S1130910C4002FEF8FE794E0215080409040E1F72E
S113092000C00000B2990DC01093610000936000F4
S11309302FEF8FE39BE0215080409040E1F700C00F
S113094000008FEF97E40197F1F700C000005ACE42
S11309508091CA009091CB00892B09F0AECE809192
S1130960C6009091C700892B61F34FCF0E94CA043F
S11309700C94B2050E94AB0558F00E94A40540F007
S113098029F45F3F29F00C949B0551110C94E60562
S11309900C94A1050E94C30568F39923B1F3552370
S11309A091F3951B550BBB27AA276217730784077E
S11309B038F09F5F5F4F220F331F441FAA1FA9F314
S11309C035D00E2E3AF0E0E832D091505040E69502
S11309D0001CCAF72BD0FE2F29D0660F771F881F63
S11309E0BB1F261737074807AB07B0E809F0BB0B56
S11309F0802DBF01FF2793585F4F3AF09E3F51056A
S1130A0078F00C949B050C94E6055F3FE4F3983E64
S1130A10D4F3869577956795B795F7959F5FC9F752
S1130A20880F911D9695879597F90895E1E0660FD3
S1130A30771F881FBB1F621773078407BA0720F04C
S1130A40621B730B840BBA0BEE1F88F7E0950895B5
S1130A500E942F056894B1110C94E60508950E9434
S1130A60CB0588F09F5798F0B92F9927B751B0F06C
S1130A70E1F0660F771F881F991F1AF0BA95C9F71E
S1130A8014C0B13091F00E94E505B1E008950C94D2
S1130A90E505672F782F8827B85F39F0B93FCCF385
S1130AA0869577956795B395D9F73EF4909580959B
S1130AB0709561957F4F8F4F9F4F0895E89409C0BB
S1130AC097FB3EF490958095709561957F4F8F4F7D
S1130AD09F4F9923A9F0F92F96E9BB279395F69593
S1130AE0879577956795B795F111F8CFFAF4BB0F11
S1130AF011F460FF1BC06F5F7F4F8F4F9F4F16C075
S1130B00882311F096E911C0772321F09EE8872FFE
S1130B10762F05C0662371F096E8862F70E060E0BA
S1130B202AF09A95660F771F881FDAF7880F969533
S1130B30879597F9089597F99F6780E870E060E0DA
S1130B4008959FEF80EC089500240A941616170662
S1130B5018060906089500240A94121613061406AA
S1130B6005060895092E0394000C11F4882352F00D
S1130B70BB0F40F4BF2B11F460FF04C06F5F7F4FC5
S1130B808F4F9F4F089557FD9058440F551F59F0AC
S1130B905F3F71F04795880F97FB991F61F09F3F66
S1130BA079F087950895121613061406551FF2CF8F
S1130BB04695F1DF08C0161617061806991FF1CFDF
S1130BC086957105610508940895E894BB27662706
S1130BD07727CB0197F90895EF920F931F93CF9343
S1130BE0DF93E80147FD02C034E001C034E1042E84
S1130BF0000C550B57FF03C0519541955109E32E45
S1130C00022F242FAE010E940C06CE01DF91CF915A
S1130C101F910F91EF900895A9E0B0E0E2E1F6E0B2
S1130C200C9474086A01122FB02E2BE3201720F0C5
S1130C30FF24F394F00E02C02CE3F22E0F2D27E0D4
S1130C40AE014F5F5F4F0E946607BC014981842F4C
S1130C508970813031F0E1FC06C0E0FE06C090E20C
S1130C6005C09DE203C09BE201C090E05E2D50717F
S1130C7043FF3CC0911102C083E001C084E08117AE
S1130C8018F4212F281B01C020E051110BC0F601DC
S1130C90822F30E2882319F031938150FBCFC20EAA
S1130CA0D11C20E0992329F0D6019C93F6013196BA
S1130CB06F01C6010396E2FE0AC03EE4D6013C93EE
S1130CC041E411964C93119712963C9306C03EE66C
S1130CD0F601308341E641833283FC01322F40E246
S1130CE0332309F442C041933150FACF42FF44C048
S1130CF0911102C083E001C084E0811718F4212F10
S1130D00281B01C020E051110BC0F601822F30E2F4
S1130D10882319F031938150FBCFC20ED11C20E0FF
S1130D20992329F0D6019C93F60131966F01C601EF
S1130D300396E2FE0BC039E4D6013C933EE41196DF
S1130D403C93119736E412963C9307C039E6F601BA
S1130D5030833EE6318336E63283FC01322F40E2B3
S1130D60332319F041933150FBCFFC01E20FF11D05
S1130D7010828EEF9FEFA6C021E030E0911102C0F7
S1130D8020E030E0161617061CF4FB01319602C071
S1130D90E1E0F0E02E0F3F1FBB2021F0EB2DF0E04F
S1130DA0319602C0E0E0F0E02E0F3F1FE12FF0E0AB
S1130DB02E173F071CF4121B212F01C020E08E2D9B
S1130DC0887159F4F601822F30E2882319F03193A7
S1130DD08150FBCFC20ED11C20E0992329F0D6010B
S1130DE09C93F60131966F0151110BC0F601822FCD
S1130DF090E3882319F091938150FBCFC20ED11C4C
S1130E0020E00F2D060F9A81342F307144FF03C068
S1130E10913309F40150101624F4093018F008E055
S1130E2001C001E0AB0177FF02C040E050E0FB01EC
S1130E30E41BF50BA1E0B0E0AC0FBD1FEA0FFB1FF4
S1130E408EE2A82E4B01801A91080B2D10E011950B
S1130E50019511094F3FBFEF5B0721F4D601AC9216
S1130E6011966D01641775072CF08416950614F419
S1130E70818101C080E3415051093196D601119618
S1130E807D014017510724F0D6018C936701E2CF0E
S1130E906417750739F4963320F4953319F4311136
S1130EA001C081E3F6018083F701822F90E2882359
S1130EB019F091938150FBCFF701E20FF11D1082DD
S1130EC080E090E02996ECE00C949008283008F03B
S1130ED027E03327DA01990F311D87FD91600096D1
S1130EE06105710539F432602E5F3D9330E32A9534
S1130EF0E1F708959F3F30F080387105610509F0EE
S1130F003C5F3C5F3D93913008F08068911DDF9316
S1130F10CF931F930F93FF92EF92192F987F96957B
S1130F20E92F96959695E90FFF27E255FF4F9927EC
S1130F303327EE24FF24A701E701059008940794C2
S1130F4028F4360FE71EF81E491F511D660F771F40
S1130F50881F991F0694A1F70590079428F4E70EBB
S1130F60F81E491F561FC11D770F881F991F661F42
S1130F700694A1F70590079428F4F80E491F561F0C
S1130F80C71FD11D880F991F661F771F0694A1F7ED
S1130F900590079420F4490F561FC71FD81F990FB7
S1130FA0661F771F881F0694A9F784911095177000
S1130FB041F0D695C79557954795F794E7941A95B8
S1130FC0C1F7E4E5F0E068941590159135916591C9
S1130FD0959105907FE27395E118F10A430B560B46
S1130FE0C90BD009C0F7E10CF11E431F561FC91FDE
S1130FF0D01D7EF4703311F48A95E6CFE894015045
S113100030F0080F0AF40027021708F4202F239564
S1131010022F7A3328F079E37D932A95E9F710C0FB
S11310207D932A9589F60694979567953795179534
S11310301794E118F10A430B560BC90BD00998F029
S113104023957E9173957A3308F070E37C93201393
S1131050B8F77E9170617D9330F0839571E37D9351
S113106070E32A95E1F71124EF90FF900F911F91FF
S1131070CF91DF91992787FD90950895A6E1B0E07F
S113108044E050E00C945308242F0E946208252F5A
S11310900E9462080C944C080E946108272F0C944B
S11310A06208DC01CB01FC01E199FECF06C0FFBB65
S11310B0EEBBE09A31960DB20D9241505040B8F714
S11310C00895262FE199FECF9FBB8EBB2DBB0FB693
S11310D0F894E29AE19A0FBE019608952F923F92F6
S11310E04F925F926F927F928F929F92AF92BF9234
S11310F0CF92DF92EF92FF920F931F93CF93DF93E0
S1131100CDB7DEB7CA1BDB0B0FB6F894DEBF0FBE3C
S1131110CDBF09942A88398848885F846E847D8489
S11311208C849B84AA84B984C884DF80EE80FD808B
S11311300C811B81AA81B981CE0FD11D0FB6F89401
S1111140DEBF0FBECDBFED010895F894FFCFC2
S113114E010020005553455231205553455232204B
S113115E564953004B45593120204B455932204BAB
S113116E45593300504F535441564954452056491E
S113117E53494E55004B455931202D2D2D3E2044BB
S113118E4F4E450053544420502E2052455345543F
S113119E20455343004B455931204B455932204B82
S10711AE4559330068
S9030000FC
