:100000000C942A000C9434000C9434000C943400AA
:100010000C9434000C9434000C9434000C94340090
:100020000C9434000C9434000C9434000C94340080
:100030000C9434000C9434000C9434000C94340070
:100040000C9434000C9434000C9434000C94340060
:100050000C94340011241FBECFE5D4E0DEBFCDBF29
:100060000E9436000C9492000C9400008FE08ABB32
:1000700097E0A3E0FBE0E9E07DE06CE05EE046E0D5
:1000800022E330E09BBB8BB380958BBBC3E3DBE209
:100090002197F1F7ABBB8BB380958BBBC3E3DBE25E
:1000A0002197F1F7FBBB8BB380958BBBC3E3DBE2FE
:1000B0002197F1F7EBBB8BB380958BBBC3E3DBE2FE
:1000C0002197F1F77BBB8BB380958BBBC3E3DBE25E
:1000D0002197F1F76BBB8BB380958BBBC3E3DBE25E
:1000E0002197F1F75BBB8BB380958BBBC3E3DBE25E
:1000F0002197F1F74BBB8BB380958BBBC3E3DBE25E
:100100002197F1F72150310909F0BCCF9BBBC3E324
:10011000DBE22197F1F7CFEFD7E42197F1F700C0A9
:080120000000AECFF894FFCF00
:00000001FF
