:100000000C942A000C943C000C943C000C943C0092
:100010000C943C000C943C000C943C000C943C0070
:100020000C943C000C943C000C943C000C943C0060
:100030000C943C000C943C000C943C000C943C0050
:100040000C943C000C943C000C943C000C943C0040
:100050000C943C0011241FBECFE5D4E0DEBFCDBF21
:1000600020E0A0E6B0E001C01D92A236B207E1F7A1
:100070000E943E000C94C0000C9400008FEF81BBE6
:100080006AE070E054E348E330E720EB70936100EE
:100090006093600052BB8FEF9FE1E1E081509040A0
:1000A000E040E1F700C0000042BB8FEF9FE1E1E0DC
:1000B00081509040E040E1F700C0000032BB8FEF7C
:1000C0009FE1E1E081509040E040E1F700C0000096
:1000D00022BB8FEF9FE1E1E081509040E040E1F7EB
:1000E00000C00000809160009091610001979093A2
:1000F000610080936000892B69F634C022BB8FEFCA
:100100009FE1E1E081509040E040E1F700C0000055
:1001100032BB8FEF9FE1E1E081509040E040E1F79A
:1001200000C0000042BB8FEF9FE1E1E081509040B2
:10013000E040E1F700C0000052BB8FEF9FE1E1E03B
:1001400081509040E040E1F700C0000080916000E5
:100150009091610001979093610080936000892BDA
:1001600069F694CF8FEF9FE7E6E181509040E04041
:10017000E1F700C000007093610060936000BECFA3
:04018000F894FFCF21
:00000001FF
